{
  "contractName": "DocumentTracking",
  "abi": [
    {
      "inputs": [
        {
          "internalType": "string",
          "name": "",
          "type": "string"
        },
        {
          "internalType": "uint256",
          "name": "",
          "type": "uint256"
        }
      ],
      "name": "accessLog",
      "outputs": [
        {
          "internalType": "address",
          "name": "user",
          "type": "address"
        },
        {
          "internalType": "uint256",
          "name": "timestamp",
          "type": "uint256"
        }
      ],
      "stateMutability": "view",
      "type": "function",
      "constant": true
    },
    {
      "inputs": [
        {
          "internalType": "string",
          "name": "",
          "type": "string"
        }
      ],
      "name": "documents",
      "outputs": [
        {
          "internalType": "string",
          "name": "name",
          "type": "string"
        },
        {
          "internalType": "string",
          "name": "cid",
          "type": "string"
        },
        {
          "internalType": "uint256",
          "name": "size",
          "type": "uint256"
        },
        {
          "internalType": "string",
          "name": "mimeType",
          "type": "string"
        },
        {
          "internalType": "string",
          "name": "description",
          "type": "string"
        },
        {
          "internalType": "address",
          "name": "uploader",
          "type": "address"
        },
        {
          "internalType": "uint256",
          "name": "uploadTimestamp",
          "type": "uint256"
        }
      ],
      "stateMutability": "view",
      "type": "function",
      "constant": true
    },
    {
      "inputs": [
        {
          "internalType": "string",
          "name": "",
          "type": "string"
        },
        {
          "internalType": "uint256",
          "name": "",
          "type": "uint256"
        }
      ],
      "name": "downloadLog",
      "outputs": [
        {
          "internalType": "address",
          "name": "user",
          "type": "address"
        },
        {
          "internalType": "uint256",
          "name": "timestamp",
          "type": "uint256"
        }
      ],
      "stateMutability": "view",
      "type": "function",
      "constant": true
    },
    {
      "inputs": [
        {
          "internalType": "string",
          "name": "_name",
          "type": "string"
        },
        {
          "internalType": "string",
          "name": "_cid",
          "type": "string"
        },
        {
          "internalType": "uint256",
          "name": "_size",
          "type": "uint256"
        },
        {
          "internalType": "string",
          "name": "_mimeType",
          "type": "string"
        },
        {
          "internalType": "string",
          "name": "_description",
          "type": "string"
        }
      ],
      "name": "uploadDocument",
      "outputs": [],
      "stateMutability": "nonpayable",
      "type": "function"
    },
    {
      "inputs": [
        {
          "internalType": "string",
          "name": "_cid",
          "type": "string"
        }
      ],
      "name": "recordAccess",
      "outputs": [],
      "stateMutability": "nonpayable",
      "type": "function"
    },
    {
      "inputs": [
        {
          "internalType": "string",
          "name": "_cid",
          "type": "string"
        }
      ],
      "name": "getAccessLog",
      "outputs": [
        {
          "components": [
            {
              "internalType": "address",
              "name": "user",
              "type": "address"
            },
            {
              "internalType": "uint256",
              "name": "timestamp",
              "type": "uint256"
            }
          ],
          "internalType": "struct DocumentTracking.AccessRecord[]",
          "name": "",
          "type": "tuple[]"
        }
      ],
      "stateMutability": "nonpayable",
      "type": "function"
    },
    {
      "inputs": [
        {
          "internalType": "string",
          "name": "_cid",
          "type": "string"
        }
      ],
      "name": "recordDownload",
      "outputs": [],
      "stateMutability": "nonpayable",
      "type": "function"
    },
    {
      "inputs": [
        {
          "internalType": "string",
          "name": "_cid",
          "type": "string"
        }
      ],
      "name": "getDownloadLog",
      "outputs": [
        {
          "components": [
            {
              "internalType": "address",
              "name": "user",
              "type": "address"
            },
            {
              "internalType": "uint256",
              "name": "timestamp",
              "type": "uint256"
            }
          ],
          "internalType": "struct DocumentTracking.DownloadRecord[]",
          "name": "",
          "type": "tuple[]"
        }
      ],
      "stateMutability": "nonpayable",
      "type": "function"
    },
    {
      "inputs": [
        {
          "internalType": "string",
          "name": "_cid",
          "type": "string"
        }
      ],
      "name": "isFileUploaded",
      "outputs": [
        {
          "internalType": "bool",
          "name": "",
          "type": "bool"
        }
      ],
      "stateMutability": "view",
      "type": "function",
      "constant": true
    },
    {
      "inputs": [
        {
          "internalType": "string",
          "name": "_cid",
          "type": "string"
        }
      ],
      "name": "deleteDocument",
      "outputs": [],
      "stateMutability": "nonpayable",
      "type": "function"
    }
  ],
  "bytecode": "0x608060405234801561001057600080fd5b5061183b806100206000396000f3fe608060405234801561001057600080fd5b506004361061009e5760003560e01c80637da87952116100665780637da879521461016b578063b1416f571461019c578063b3dd697b146101cd578063d223692814610203578063d4d304361461021f5761009e565b806307ae2ebf146100a357806317150259146100d357806355fe4c1c146101035780636152fb3b1461011f578063635994f81461014f575b600080fd5b6100bd60048036038101906100b89190610fc8565b61023b565b6040516100ca91906114a1565b60405180910390f35b6100ed60048036038101906100e89190610fc8565b610387565b6040516100fa919061147f565b60405180910390f35b61011d60048036038101906101189190611009565b6104d3565b005b61013960048036038101906101349190610fc8565b610682565b60405161014691906114c3565b60405180910390f35b61016960048036038101906101649190610fc8565b6106bb565b005b610185600480360381019061018091906110e0565b610874565b604051610193929190611456565b60405180910390f35b6101b660048036038101906101b191906110e0565b6108eb565b6040516101c4929190611456565b60405180910390f35b6101e760048036038101906101e29190610fc8565b610962565b6040516101fa97969594939291906114de565b60405180910390f35b61021d60048036038101906102189190610fc8565b610bfa565b005b61023960048036038101906102349190610fc8565b610d31565b005b60606000808360405161024e919061143f565b9081526020016040518091039020600101805461026a9061174d565b9050116102ac576040517f08c379a00000000000000000000000000000000000000000000000000000000081526004016102a3906115a9565b60405180910390fd5b6002826040516102bc919061143f565b9081526020016040518091039020805480602002602001604051908101604052809291908181526020016000905b8282101561037c57838290600052602060002090600202016040518060400160405290816000820160009054906101000a900473ffffffffffffffffffffffffffffffffffffffff1673ffffffffffffffffffffffffffffffffffffffff1673ffffffffffffffffffffffffffffffffffffffff168152602001600182015481525050815260200190600101906102ea565b505050509050919050565b60606000808360405161039a919061143f565b908152602001604051809103902060010180546103b69061174d565b9050116103f8576040517f08c379a00000000000000000000000000000000000000000000000000000000081526004016103ef906115a9565b60405180910390fd5b600182604051610408919061143f565b9081526020016040518091039020805480602002602001604051908101604052809291908181526020016000905b828210156104c857838290600052602060002090600202016040518060400160405290816000820160009054906101000a900473ffffffffffffffffffffffffffffffffffffffff1673ffffffffffffffffffffffffffffffffffffffff1673ffffffffffffffffffffffffffffffffffffffff16815260200160018201548152505081526020019060010190610436565b505050509050919050565b600080856040516104e4919061143f565b908152602001604051809103902060010180546105009061174d565b905014610542576040517f08c379a000000000000000000000000000000000000000000000000000000000815260040161053990611569565b60405180910390fd5b6040518060e001604052808681526020018581526020018481526020018381526020018281526020013373ffffffffffffffffffffffffffffffffffffffff1681526020014281525060008560405161059b919061143f565b908152602001604051809103902060008201518160000190805190602001906105c5929190610e68565b5060208201518160010190805190602001906105e2929190610e68565b50604082015181600201556060820151816003019080519060200190610609929190610e68565b506080820151816004019080519060200190610626929190610e68565b5060a08201518160050160006101000a81548173ffffffffffffffffffffffffffffffffffffffff021916908373ffffffffffffffffffffffffffffffffffffffff16021790555060c082015181600601559050505050505050565b600080600083604051610695919061143f565b908152602001604051809103902060010180546106b19061174d565b9050119050919050565b600080826040516106cc919061143f565b908152602001604051809103902060010180546106e89061174d565b90501161072a576040517f08c379a0000000000000000000000000000000000000000000000000000000008152600401610721906115a9565b60405180910390fd5b3373ffffffffffffffffffffffffffffffffffffffff16600082604051610751919061143f565b908152602001604051809103902060050160009054906101000a900473ffffffffffffffffffffffffffffffffffffffff1673ffffffffffffffffffffffffffffffffffffffff16146107d9576040517f08c379a00000000000000000000000000000000000000000000000000000000081526004016107d090611589565b60405180910390fd5b6000816040516107e9919061143f565b9081526020016040518091039020600080820160006108089190610eee565b6001820160006108189190610eee565b60028201600090556003820160006108309190610eee565b6004820160006108409190610eee565b6005820160006101000a81549073ffffffffffffffffffffffffffffffffffffffff02191690556006820160009055505050565b60028280516020810182018051848252602083016020850120818352809550505050505081815481106108a657600080fd5b9060005260206000209060020201600091509150508060000160009054906101000a900473ffffffffffffffffffffffffffffffffffffffff16908060010154905082565b600182805160208101820180518482526020830160208501208183528095505050505050818154811061091d57600080fd5b9060005260206000209060020201600091509150508060000160009054906101000a900473ffffffffffffffffffffffffffffffffffffffff16908060010154905082565b60008180516020810182018051848252602083016020850120818352809550505050505060009150905080600001805461099b9061174d565b80601f01602080910402602001604051908101604052809291908181526020018280546109c79061174d565b8015610a145780601f106109e957610100808354040283529160200191610a14565b820191906000526020600020905b8154815290600101906020018083116109f757829003601f168201915b505050505090806001018054610a299061174d565b80601f0160208091040260200160405190810160405280929190818152602001828054610a559061174d565b8015610aa25780601f10610a7757610100808354040283529160200191610aa2565b820191906000526020600020905b815481529060010190602001808311610a8557829003601f168201915b505050505090806002015490806003018054610abd9061174d565b80601f0160208091040260200160405190810160405280929190818152602001828054610ae99061174d565b8015610b365780601f10610b0b57610100808354040283529160200191610b36565b820191906000526020600020905b815481529060010190602001808311610b1957829003601f168201915b505050505090806004018054610b4b9061174d565b80601f0160208091040260200160405190810160405280929190818152602001828054610b779061174d565b8015610bc45780601f10610b9957610100808354040283529160200191610bc4565b820191906000526020600020905b815481529060010190602001808311610ba757829003601f168201915b5050505050908060050160009054906101000a900473ffffffffffffffffffffffffffffffffffffffff16908060060154905087565b60008082604051610c0b919061143f565b90815260200160405180910390206001018054610c279061174d565b905011610c69576040517f08c379a0000000000000000000000000000000000000000000000000000000008152600401610c60906115a9565b60405180910390fd5b600181604051610c79919061143f565b908152602001604051809103902060405180604001604052803373ffffffffffffffffffffffffffffffffffffffff16815260200142815250908060018154018082558091505060019003906000526020600020906002020160009091909190915060008201518160000160006101000a81548173ffffffffffffffffffffffffffffffffffffffff021916908373ffffffffffffffffffffffffffffffffffffffff16021790555060208201518160010155505050565b60008082604051610d42919061143f565b90815260200160405180910390206001018054610d5e9061174d565b905011610da0576040517f08c379a0000000000000000000000000000000000000000000000000000000008152600401610d97906115a9565b60405180910390fd5b600281604051610db0919061143f565b908152602001604051809103902060405180604001604052803373ffffffffffffffffffffffffffffffffffffffff16815260200142815250908060018154018082558091505060019003906000526020600020906002020160009091909190915060008201518160000160006101000a81548173ffffffffffffffffffffffffffffffffffffffff021916908373ffffffffffffffffffffffffffffffffffffffff16021790555060208201518160010155505050565b828054610e749061174d565b90600052602060002090601f016020900481019282610e965760008555610edd565b82601f10610eaf57805160ff1916838001178555610edd565b82800160010185558215610edd579182015b82811115610edc578251825591602001919060010190610ec1565b5b509050610eea9190610f2e565b5090565b508054610efa9061174d565b6000825580601f10610f0c5750610f2b565b601f016020900490600052602060002090810190610f2a9190610f2e565b5b50565b5b80821115610f47576000816000905550600101610f2f565b5090565b6000610f5e610f59846115fa565b6115c9565b905082815260208101848484011115610f7657600080fd5b610f8184828561170b565b509392505050565b600082601f830112610f9a57600080fd5b8135610faa848260208601610f4b565b91505092915050565b600081359050610fc2816117ee565b92915050565b600060208284031215610fda57600080fd5b600082013567ffffffffffffffff811115610ff457600080fd5b61100084828501610f89565b91505092915050565b600080600080600060a0868803121561102157600080fd5b600086013567ffffffffffffffff81111561103b57600080fd5b61104788828901610f89565b955050602086013567ffffffffffffffff81111561106457600080fd5b61107088828901610f89565b945050604061108188828901610fb3565b935050606086013567ffffffffffffffff81111561109e57600080fd5b6110aa88828901610f89565b925050608086013567ffffffffffffffff8111156110c757600080fd5b6110d388828901610f89565b9150509295509295909350565b600080604083850312156110f357600080fd5b600083013567ffffffffffffffff81111561110d57600080fd5b61111985828601610f89565b925050602061112a85828601610fb3565b9150509250929050565b600061114083836113c3565b60408301905092915050565b600061115883836113f2565b60408301905092915050565b61116d816116c3565b82525050565b61117c816116c3565b82525050565b600061118d8261164a565b6111978185611685565b93506111a28361162a565b8060005b838110156111d35781516111ba8882611134565b97506111c58361166b565b9250506001810190506111a6565b5085935050505092915050565b60006111eb82611655565b6111f58185611696565b93506112008361163a565b8060005b83811015611231578151611218888261114c565b975061122383611678565b925050600181019050611204565b5085935050505092915050565b611247816116d5565b82525050565b600061125882611660565b61126281856116a7565b935061127281856020860161171a565b61127b816117dd565b840191505092915050565b600061129182611660565b61129b81856116b8565b93506112ab81856020860161171a565b80840191505092915050565b60006112c46025836116a7565b91507f446f63756d656e74207769746820746869732043494420616c7265616479206560008301527f78697374730000000000000000000000000000000000000000000000000000006020830152604082019050919050565b600061132a6026836116a7565b91507f4f6e6c792075706c6f616465722063616e2064656c657465207468697320646f60008301527f63756d656e7400000000000000000000000000000000000000000000000000006020830152604082019050919050565b60006113906017836116a7565b91507f446f63756d656e7420646f6573206e6f742065786973740000000000000000006000830152602082019050919050565b6040820160008201516113d96000850182611164565b5060208201516113ec6020850182611421565b50505050565b6040820160008201516114086000850182611164565b50602082015161141b6020850182611421565b50505050565b61142a81611701565b82525050565b61143981611701565b82525050565b600061144b8284611286565b915081905092915050565b600060408201905061146b6000830185611173565b6114786020830184611430565b9392505050565b600060208201905081810360008301526114998184611182565b905092915050565b600060208201905081810360008301526114bb81846111e0565b905092915050565b60006020820190506114d8600083018461123e565b92915050565b600060e08201905081810360008301526114f8818a61124d565b9050818103602083015261150c818961124d565b905061151b6040830188611430565b818103606083015261152d818761124d565b90508181036080830152611541818661124d565b905061155060a0830185611173565b61155d60c0830184611430565b98975050505050505050565b60006020820190508181036000830152611582816112b7565b9050919050565b600060208201905081810360008301526115a28161131d565b9050919050565b600060208201905081810360008301526115c281611383565b9050919050565b6000604051905081810181811067ffffffffffffffff821117156115f0576115ef6117ae565b5b8060405250919050565b600067ffffffffffffffff821115611615576116146117ae565b5b601f19601f8301169050602081019050919050565b6000819050602082019050919050565b6000819050602082019050919050565b600081519050919050565b600081519050919050565b600081519050919050565b6000602082019050919050565b6000602082019050919050565b600082825260208201905092915050565b600082825260208201905092915050565b600082825260208201905092915050565b600081905092915050565b60006116ce826116e1565b9050919050565b60008115159050919050565b600073ffffffffffffffffffffffffffffffffffffffff82169050919050565b6000819050919050565b82818337600083830152505050565b60005b8381101561173857808201518184015260208101905061171d565b83811115611747576000848401525b50505050565b6000600282049050600182168061176557607f821691505b602082108114156117795761177861177f565b5b50919050565b7f4e487b7100000000000000000000000000000000000000000000000000000000600052602260045260246000fd5b7f4e487b7100000000000000000000000000000000000000000000000000000000600052604160045260246000fd5b6000601f19601f8301169050919050565b6117f781611701565b811461180257600080fd5b5056fea2646970667358221220b9e56afcf2b2de0c8f7522ef7af946dbbbb0f2a684b098d30cefbec2e22673b064736f6c63430008000033",
  "immutableReferences": {},
  "source": "// SPDX-License-Identifier: MIT\r\npragma solidity ^0.8.0;\r\n\r\ncontract DocumentTracking {\r\n\r\n    struct Document {\r\n        string name;\r\n        string cid;\r\n        uint256 size;\r\n        string mimeType;\r\n        string description; // Deskripsi dokumen\r\n        address uploader;\r\n        uint256 uploadTimestamp; // Waktu unggah\r\n    }\r\n\r\n    struct AccessRecord {\r\n        address user;\r\n        uint256 timestamp; // Waktu akses\r\n    }\r\n\r\n    struct DownloadRecord {\r\n        address user;\r\n        uint256 timestamp; // Waktu download\r\n    }\r\n\r\n    mapping(string => Document) public documents; // CID -> Document metadata\r\n    mapping(string => AccessRecord[]) public accessLog; // CID -> Access log\r\n    mapping(string => DownloadRecord[]) public downloadLog; // CID -> Download log\r\n\r\n    // Upload document metadata to blockchain (dengan deskripsi tambahan dan waktu unggah)\r\n    function uploadDocument(\r\n        string memory _name,\r\n        string memory _cid,\r\n        uint256 _size,\r\n        string memory _mimeType,\r\n        string memory _description\r\n    ) public {\r\n        require(bytes(documents[_cid].cid).length == 0, \"Document with this CID already exists\");\r\n        \r\n        documents[_cid] = Document({\r\n            name: _name,\r\n            cid: _cid,\r\n            size: _size,\r\n            mimeType: _mimeType,\r\n            description: _description,\r\n            uploader: msg.sender,\r\n            uploadTimestamp: block.timestamp // Menyimpan waktu unggah\r\n        });\r\n    }\r\n\r\n    // Record access to a document with timestamp\r\n    function recordAccess(string memory _cid) public {\r\n        require(bytes(documents[_cid].cid).length > 0, \"Document does not exist\");\r\n        accessLog[_cid].push(AccessRecord(msg.sender, block.timestamp));\r\n    }\r\n\r\n    // Get access log for a document\r\n    function getAccessLog(string memory _cid) public returns (AccessRecord[] memory) {\r\n        require(bytes(documents[_cid].cid).length > 0, \"Document does not exist\");\r\n        return accessLog[_cid];\r\n    }\r\n\r\n    // Record document download with timestamp\r\n    function recordDownload(string memory _cid) public {\r\n        require(bytes(documents[_cid].cid).length > 0, \"Document does not exist\");\r\n        downloadLog[_cid].push(DownloadRecord(msg.sender, block.timestamp));\r\n    }\r\n\r\n    // Get download log for a document\r\n    function getDownloadLog(string memory _cid) public returns (DownloadRecord[] memory) {\r\n        require(bytes(documents[_cid].cid).length > 0, \"Document does not exist\");\r\n      \r\n        return downloadLog[_cid];\r\n    }\r\n\r\n    // Fungsi untuk memeriksa apakah file sudah diupload berdasarkan CID\r\n    function isFileUploaded(string memory _cid) public view returns (bool) {\r\n        return bytes(documents[_cid].cid).length > 0;\r\n    }\r\n\r\n    // Fungsi untuk menghapus metadata dokumen tanpa menghapus log\r\n    function deleteDocument(string memory _cid) public {\r\n        require(bytes(documents[_cid].cid).length > 0, \"Document does not exist\");\r\n        require(documents[_cid].uploader == msg.sender, \"Only uploader can delete this document\");\r\n\r\n        // Hapus metadata dokumen\r\n        delete documents[_cid];\r\n    }\r\n}\r\n",
  "sourcePath": "C:\\Users\\Nes\\Desktop\\Skripsi2\\Baru\\document-storage\\contracts\\DocumentTracking.sol",
  "compiler": {
    "name": "solc",
    "version": "0.8.0+commit.c7dfd78e.Emscripten.clang"
  },
  "schemaVersion": "3.4.16",
  "updatedAt": "2024-12-02T19:31:00.539Z",
  "networkType": "ethereum",
  "devdoc": {
    "kind": "dev",
    "methods": {},
    "version": 1
  },
  "userdoc": {
    "kind": "user",
    "methods": {},
    "version": 1
  }
}